:020000040800F2
:1000000030CD0120011E0008FD0A0008FF0A00088B
:10001000110B0008130B0008150B0008000000006E
:10002000000000000000000000000000131E000897
:10003000170B000800000000215B01087146000852
:100040001B1E00081B1E00081B1E00081B1E0008AC
:100050001B1E00081B1E00081B1E00081B1E00089C
:100060001B1E00081B1E00081B1E00081B1E00088C
:100070001B1E00081B1E00081B1E00081B1E00087C
:100080001B1E00081B1E00081B1E00081B1E00086C
:100090001B1E00081B1E00081B1E000871480008DC
:1000A0001B1E00081B1E00081B1E0008230F000853
:1000B0001B1E00081B1E00081B1E00081B1E00083C
:1000C0001B1E00081B1E00081B1E00081B1E00082C
:1000D0001B1E000803480008B1490008774D0008BE
:1000E0001B1E00081B1E00081B1E00081B1E00080C
:1000F0001B1E00081B1E00081B1E00081B1E0008FC
:100100001B1E00081B1E00081B1E00081B1E0008EB
:100110001B1E00081B1E00081B1E00081B1E0008DB
:100120001B1E00081B1E00081B1E00081B1E0008CB
:100130001B1E0008831100081B1E00081B1E000860
:100140001B1E00081B1E00081B1E00081B1E0008AB
:100150001B1E00081B1E00081B1E00081B1E00089B
:100160001B1E00081B1E00081B1E00081B1E00088B
:100170001B1E00081B1E00081B1E00081B1E00087B
:100180001B1E00081B1E000800F002F800F07EF89D
:100190000AA090E8000C82448344AAF10107DA45E2
:1001A00001D100F073F8AFF2090EBAE80F0013F0B6
:1001B000010F18BFFB1A43F001031847C492020055
:1001C000E49202000A444FF0000C10F8013B13F0D7
:1001D000070408BF10F8014B1D1108BF10F8015BA0
:1001E000641E05D010F8016B641E01F8016BF9D193
:1001F00013F0080F1EBF10F8014BAD1C0C1B09D1EA
:100200006D1E58BF01F801CBFAD505E014F8016B5B
:1002100001F8016B6D1EF9D59142D6D370470000ED
:100220000023002400250026103A28BF78C1FBD8FF
:10023000520728BF30C148BF0B60704766291DF0C8
:10024000398367291DF0368369291AF0F7806429FC
:100250001AF0F48078291AF02D8173291AF09B8600
:10026000002070471FB51DF018FB1AF0F5FB0400C5
:10027000002000211CF03EFD401C60600020002199
:100280001CF04EFDE0601FBD10B510BD1BF0E8FC7A
:100290001146FFF7E7FF00F0EDFA1BF049FF03B44A
:1002A000FFF7F2FF03BC04F04DFA000004462146BC
:1002B000FEA01AF051F8FAE7DFF8FCA3DFF8FCB370
:1002C000DFF8FC83FF4F88B040F22559002407AACD
:1002D00000214546D8F8140013F07FFEFAA1E8602B
:1002E0001AF0E5F900B34FF40172F948E9681AF021
:1002F000AAFA3C804FF48061F6481AF01BFBF449DF
:10030000A86913F0FEFE05A9FF2014F0E7FEDDE961
:100310000512F1A01AF020F800224FF4FA731146EA
:10032000104614F0E6FFD2E7F6A01AF015F83C806C
:1003300001224946504602F0B8FF5E4602E000BF87
:1003400004F0A1FB96F878000028F9D00022494675
:10035000504602F0AAFF86F87840F148ED4BEE4A8D
:10036000EE4900681B68126809688DE80F00ED48C7
:10037000EEA10368EC480268F14819F0F9FFF14E6C
:100380003078012818D1286A1DF016FACDE900014D
:10039000E8691DF011FA0246E8680B460490DDE9B1
:1003A0000001CDE90201E848CDE900230268E44BF1
:1003B000E649C74819F0DCFF3078C0B9286A1DF05B
:1003C000FBF9CDE90001E8691DF0F6F90246E8689D
:1003D0000B460490DDE90001CDE90201DA48CDE9E0
:1003E00000230268D64BDA49B94819F0C1FF3078CA
:1003F000032819D13470286A1DF0DEF9CDE9000117
:10040000E8691DF0D9F90246E8680B460490DDE979
:100410000001CDE90201CC48CDE900230268C84BB8
:10042000CC49AB4819F0A4FF4FF48061A9481AF0F9
:1004300081FAA749A846A86913F063FED8F82000FE
:100440001DF0BAF905460E46D8F81C001DF0B4F9A7
:1004500041EC100BCDE9005653EC102BBEA019F067
:100460007BFF002015F0C1FB0146C5A019F074FF09
:10047000022015F0BAFB0146C6A019F06DFF00225C
:100480004FF4FA731146104614F033FF3BE71CB5E6
:100490000025FF2014F057FEC44FDFF814A3884C4A
:1004A000C44E4FF00109A84641F2883BE069B842CA
:1004B0001FDDC6F8BC92BAF800100A060CD501F090
:1004C0003F00BD49C0EB0040097845182946BBA054
:1004D00019F042FFAAF800800022142311461046AA
:1004E00014F007FF15B184F8008004E084F8009050
:1004F00001E0C6F8BC826946FF2014F0EFFDDDE99B
:100500000012B2A019F028FF00225B4611461046E7
:1005100014F0EFFECAE708B518F075FA0146B6A068
:1005200019F01AFFFF2014F00EFE65486A460021FC
:10053000006914F056FA00224FF4FA74234611466B
:10054000104614F0D6FE15F01CFC0022234611467E
:10055000104614F0CEFEF8E7AD4CA07DFF2812D077
:10056000A07D0228F9D10C2014F07CFD0B2014F0A2
:1005700079FD0E2014F076FD082014F073FDFF20A5
:1005800014F0E1FDE9E705F0F8FDA2A019F0E4FEA2
:10059000F5E72DE9F04186B0A4A019F0DDFE12F0D8
:1005A000F7FF15F095FA804604F082FD00214FF424
:1005B000FA730222084614F09CFE002014F08DF914
:1005C0003F4C2061002013F08DFC6061002013F08F
:1005D00089FCA06180269A48CDE901060025032404
:1005E0000D20984A034629460090AFF29300CDE9CA
:1005F000035414F0D3FB010002D093A019F0ACFE19
:100600004FF480779648CDE901070B208C4A0346CA
:10061000121F00210090AFF20110CDE9035414F035
:10062000BDFB010002D088A019F096FE8D48CDE9EF
:10063000010608208C4A034600210090AFF2B11059
:10064000CDE9035414F0AAFB010002D07EA019F0FA
:1006500083FE7C48834A001DCDE901070E20121F4E
:10066000034600210090AFF2AF30CDE9035414F0FF
:1006700095FB010002D074A019F06EFE7A4940206B
:10068000091DCDE901103D200090CDE9035403463A
:1006900001F1FC020021754814F080FBFF2014F0EA
:1006A000C5FB06B04046BDE8F041E1E06565726F0C
:1006B000722025640D0A00000044004084240020BC
:1006C000000000209C0000206576656E740000002C
:1006D00060110020D42500206468746C6C20746163
:1006E000736B20667265656420737461636B206947
:1006F000732025642C20757365642069732025643C
:100700000D0A00006E6F7420746865206576656E52
:10071000740D0A0098000020940000209000002032
:100720008C000020880000208400002032302564E6
:100730002E25642E25642025643A25643A2564001C
:10074000641300202C020020107AFF1FE0900208A2
:10075000D08F02085890020874656D7065726174DC
:100760007572653D252E3166A1E60968756D69646F
:100770006974793D252E316625255248090D0A00F8
:100780007373C4DAB4E6C0FBD3C3C2CA25640D0ACE
:10079000000000007372616D63636DC4DAB4E6C07B
:1007A000FBD3C3C2CA25640D0A000000000020412B
:1007B0003A000020000040423C00002048494748E1
:1007C0003A25642075730D0A0000000066616E20F2
:1007D0007461736B20667265656420737461636B0A
:1007E0002069732025642C2075736564206973204B
:1007F00025640D0A000000000D0A634A534F4E2085
:1008000056657273696F6E3A2025730D0A000000F9
:10081000D4290020C6F4B6AF68747470207765627E
:1008200020736572766963650D0A00006E6F77202C
:100830006174207374617274207461736B0A0000B8
:10084000600800205C0A0020637265617465207492
:1008500061736B206661696C65642025640D0A0014
:1008600060040020600E00205C100020A50C000831
:1008700015F032B92DE9FF41A82003F007FF4FF42E
:10088000A06001F0DDFA4FF4E134204603F063FF8D
:100890004FF4165004F03BF8204604F014FA00F030
:1008A00012FF01F095F900F0C1FA03F0F8FF00F033
:1008B000D7FA00F011FD04F0C6F8002015F07BF91E
:1008C000012015F078F9022015F075F94FF48065D4
:1008D0002946022015F018FA4D4C29466060022086
:1008E00015F012FAA06002E04AA019F035FD606828
:1008F0000028F9D0A8462946022015F005FAA06084
:1009000003E04AA019F028FDA0680028F9D012F0F1
:1009100052FD04F098F84B4E05E000BF04F0B3F828
:1009200049A019F019FD96F878000028F6D00025A6
:1009300086F878502A4640F225514A4802F0B5FC24
:1009400049484B494B4B0268484809681B68006896
:1009500000930392CDE90110474849A10368474835
:1009600002684D4819F004FD4C4E4FF4FA7729E027
:10097000642003F0C5FE4AA019F0EEFC424641F2A5
:100980001001606800F006FFD4E9012048A119F0C9
:10099000EFFCA06819F0EDFE82B24748A16804F0B0
:1009A00026FA46A0A16819F0D7FC3088000409D5C2
:1009B00043A1464819F07BFE10B10120607000E0B1
:1009C0006570358060780028D2D005E040A019F02D
:1009D000C3FC384603F094FE04F092FA0028F5D1E7
:1009E00005E040A019F0B8FC384603F089FE04F099
:1009F000DBFF0028F5D10A233F4A0021AFF26D400A
:100A000014F083F912F0B1FD04B00020BDE8F081CC
:100A10000000002062756632206D616C6C6F63208F
:100A20006661696C65640D0A0000000062756633DA
:100A3000206D616C6C6F63206661696C65640D0A82
:100A400000000000842400206770732064617461DA
:100A5000206973206E6F742075736566756C6C0AFF
:100A60000000000000440040980000209400002096
:100A7000900000208C0000208800002084000020CE
:100A8000323025642E25642E25642025643A2564A1
:100A90003A25640D0A000000641300209C00002029
:100AA000D6D8B7A2D7D3B0E5B4AEBFDA0D0A0000EE
:100AB00025730D0A00000000004800402573000067
:100AC000736F6E626F6172645F6F6B00D42500207C
:100AD0004C77697020496E6974206661696C656441
:100AE0002100000054435020436C69656E742066F9
:100AF00061696C65642121005C0400207047064830
:100B00000068C00700D000BE04A019F025FCFBE778
:100B1000FEE7FEE7FEE77047F0ED00E06861726413
:100B20006661756C740D0A000CB500205449019083
:100B300000900A6842F480320A604FF4A0430A68C9
:100B400002F400320092019A521C0192009A12B9EA
:100B5000019A9A42F3D10A68920334D50120009099
:100B600047484030026842F08052026045480268BF
:100B700042F4404202604248083002680260026863
:100B800042F400420260026842F4A0520260031F75
:100B90003D4A1A600A6842F080720A600A6892014F
:100BA000FCD53A4A40F205711160016821F0030159
:100BB0000160016841F0020101600168C1F3810137
:100BC0000229FAD10CBD00900CBD314810B5016866
:100BD00041F4700101602A48016841F0010101609F
:100BE000274A00210832116002682A4B1A4002602D
:100BF000031D294A1A60026822F4802202602048FC
:100C00000C300160FFF790FF21494FF00060803900
:100C1000086010BD70B51A4C083420681F4A10F0E7
:100C20000C011F4804D05510042903D0082903D013
:100C300002601BE0056019E01149091D0B68C3F350
:100C400080560B6803F03F0316B1B5FBF3F201E0E9
:100C5000B2FBF3F20B680968C3F388135A43C1F37C
:100C60000141491C4900B2FBF1F1016021680C4AC5
:100C7000C1F30311121D515C0268CA40026070BDCD
:100C8000003802400070004008544007003C024019
:100C900088ED00E0FFFFF6FE103000240024F40091
:100CA000240000201FB5134C134819F055FB13A066
:100CB00019F052FB17E000BF94F8320002A9183473
:100CC00014F00CFADDE90210014464225043B0FB39
:100CD000F1F0616BDDE90232CDE90001A17E13A0E4
:100CE00019F03AFB2468002CE6D10FA019F034FB70
:100CF0001FBD00004C4E0020689102082020507259
:100D0000696F202020202055736564202020204614
:100D10007265652020202050657220202020202030
:100D20005461736B4E616D650D0A00002020202513
:100D300032642020202025356420202020253564A1
:100D40002020202025303264252520202020202529
:100D5000730D0A007CB50121322001F04EFBC0204A
:100D6000002500908DF8045001248DF80740694655
:100D7000284801F029F9E00300908DF804508DF81F
:100D800007406946244801F01FF9042000908DF8BF
:100D9000044002208DF807006946204801F014F94C
:100DA0007CBD70B51E4D1F4E1F4C012108B129702E
:100DB00001E0287840B1D4F81C0250B1D4F81802F0
:100DC00038B1D6F83C0220B1D4F81C02012815D065
:100DD0001DE00A2003F094FC00202870D4F81C02C7
:100DE00030B1D4F8180228B1D6F83C0220B10EE098
:100DF000012070BD022070BD032070BDD4F8180220
:100E0000012804D1D6F83C02012800D12970002025
:100E100070BD0000001402400004024000100240B7
:100E20003800002000804042008042421CB5012171
:100E3000084601F0E2FA4FF40040009001208DF8DE
:100E4000040000218DF806108DF8070003208DF8AE
:100E500005006946014801F0B7F81CBD00000240DA
:100E60002DE9F04101218AB0084601F0EEFA012196
:100E7000084601F0C2FA02258DF8105003264FF4FF
:100E800000608DF8116000244F4F03908DF81240E0
:100E90008DF8135003A9384601F096F801220B2172
:100EA000384601F01AF94FF6FE700690A720ADF80B
:100EB0001400DFF81881ADF8164005A9404601F08E
:100EC0003FFC0C20ADF800000127ADF80470ADF830
:100ED0000240ADF80640ADF808406946404601F0D2
:100EE000E9FE0021404602F046F80121404601F0AB
:100EF0009FFC01221121404601F0ABFF4FF4A0609E
:100F000000F09EFF1B208DF820008DF821508DF8F9
:100F100022608DF8237008A800F097FF0AB0BDE8A2
:100F2000F08170B512F0A1FA294C284D2078000606
:100F300042D40121284601F0A0FF38B121784806AB
:100F400004D5C843800619D0491C217010212846B9
:100F500001F093FF80B32078410616D540F0800061
:100F60002070284601F03AFF81B2618019A019F083
:100F7000F3F90021284601F03AFE1DE041F080001F
:100F800020704FF6FF706080E0E7002020706080E6
:100F90000146284601F04CFC0021284601F012FCD5
:100FA0002078022140F040002070284601F01FFE0A
:100FB0000121284601F03CFC1121284601F069FF7F
:100FC000BDE8704012F05BBA000002400000014032
:100FD0003A0000207468652076616C75652069733D
:100FE000203A2025640D0A0010B5B0B001214FF061
:100FF000606001F002FA02F0AFF902F0C4FD00BF38
:1010000002F0C7FD0128FBD0684602F0B1F90120CB
:10101000009000204FF40071CDE90A1009040790F8
:101020001190CDE920010E90149013900A111590A3
:101030002590269023920420CDE9280180032A9050
:1010400080012B9040122C9040002E900021684689
:1010500002F020FAC4B2012C03D10121944802F01D
:10106000AAFD30B0204610BDFEB501214D2001F093
:10107000C4F90121880301F0E8F9012001F0BBFA6D
:101080008620032500908DF8055002208DF804007D
:101090000024884E8DF806408DF80740694630469A
:1010A00000F092FF0B220121304601F016F80B22CE
:1010B0000221304601F011F80B220721304601F0E1
:1010C0000CF832207C4E00906946304600F07CFFE0
:1010D0000B220121304601F000F80B22042130469A
:1010E00000F0FBFF0B220521304600F0F6FF4FF425
:1010F000D040724E00906946304600F065FF0B22EA
:101100001146304600F0E9FF0B220D21304600F079
:10111000E4FF0B220E21304600F0DFFF8DF8055072
:10112000012508208DF8045000908DF806408DF8B8
:1011300007406946624800F047FF624EC6F88C429D
:10114000322006F5237603F0DBFA35603D208DF87A
:1011500008008DF809408DF80A408DF80B5002A860
:1011600000F073FEFFF740FF08B10020FEBD012034
:10117000FEBD10B51F21002002F064F9C0F382000B
:1011800010BD10B5504C01E003F052FE206802F093
:10119000E0FC0028F8D1402002F01EFDBDE8104020
:1011A0004FF4803002F018BD30B5474C00231A468A
:1011B00021680D68002D0BDA444913464C6924065A
:1011C00002D580244C618B6002604260826030BD39
:1011D0000D682D040AD40D68ED0507D50D68AD0521
:1011E00004D50A68C2F30D438A681B1FCD682560C9
:1011F0000360C0E9012130BD354A11680B68002B3E
:1012000001DA00207047C0F30C004860086840F025
:1012100040500860086840F0004008602B4843696F
:101220005B0703D50423436100234360C868106053
:1012300001207047264800688068704710B5254C2B
:101240000020216814F057FD0020616814F053FD60
:101250000020A16814F04FFDE168BDE810400020B7
:1012600014F049BD70B5A021002014F04DFD194CBB
:10127000A0212060002014F047FD41F6C4556060B5
:101280002946002014F040FDA0602946002014F0FB
:101290003BFDE060216831B1616821B1A16811B105
:1012A00008B1002070BDFFF7C9FF012070BD00002C
:1012B0004000010000000240000802400018024007
:1012C000000C024000804142680000200090024073
:1012D00064000020400000202DE9F04198B0012179
:1012E000782001F08AF84FF63370169002208DF8BE
:1012F0005C0003208DF85D0000248DF85E40012025
:10130000DFF868828DF85F0016A9404600F05CFEA9
:101310004FF68370964D169016A9284600F054FE9D
:101320004FF23F00934E169016A9304600F04CFE47
:1013300040F23F40904F169016A9384600F044FE08
:101340000C220021404600F0C8FE0C22012140463C
:1013500000F0C3FE0C220421404600F0BEFE0C2229
:101360000521404600F0B9FE0C220821404600F05D
:10137000B4FE0C220921404600F0AFFE0C220A21E7
:10138000404600F0AAFE0C220B21404600F0A5FECC
:101390000C221146404600F0A0FE0C220D214046D2
:1013A00000F09BFE0C220E21404600F096FE0C221F
:1013B0000F21404600F091FE0C220021284600F04B
:1013C0008CFE0C220121284600F087FE0C2207210A
:1013D000284600F082FE0C220821284600F07DFEFF
:1013E0000C220921284600F078FE0C220A2128460A
:1013F00000F073FE0C220B21284600F06EFE0C223A
:101400001146284600F069FE0C220D21284600F006
:1014100064FE0C220E21284600F05FFE0C220F21F4
:10142000284600F05AFE0C220021304600F055FEFE
:101430000C220121304600F050FE0C2202213046E1
:1014400000F04BFE0C220321304600F046FE0C2239
:101450000421304600F041FE0C220521304600F008
:101460003CFE0C221146304600F037FE0C220D21C6
:10147000304600F032FE0C220E21304600F02DFEE8
:101480000C220F21304600F028FE0C2200213846A5
:1014900000F023FE0C220121384600F01EFE0C2233
:1014A0000221384600F019FE0C220321384600F0D4
:1014B00014FE0C220421384600F00FFE0C220521F8
:1014C000384600F00AFE0C220A21384600F005FEDC
:1014D0000920CDE910400F94149404201594CDE90F
:1014E000000412941020CDE90240139404940002E9
:1014F000CDE908400FA80794CDE90C400594069467
:101500000E900A940B94684602F096FC0121042088
:1015100002F00BFD18B0BDE8F08110B5002A07D02D
:101520004FF0D04310F8014B5C54491C521EF7D1C8
:1015300010BD002A08D000BF4FF0D0435B5C491CAF
:1015400000F8013B521EF7D1704703B50146012256
:1015500001A8FFF7E2FF0CBD08B50146012268466D
:10156000FFF7E7FF9DF8000008BD0000000C0240F7
:1015700000100240001402400018024070B5404CB8
:1015800005460221204602F0C4FF0028F9D0294672
:10159000204602F091FF0121204602F0BAFF002808
:1015A000F9D0204602F086FFC0B270BD2DE9F043AD
:1015B00087B00121022000F020FF4FF48059012163
:1015C000484600F042FF02268DF8186000248DF88E
:1015D0001A4003208DF81900DFF8A880382501276C
:1015E00005958DF81B7005A9404600F0EDFC05221D
:1015F0000321404600F071FD05220421404600F021
:101600006CFD05221146404600F067FD0121484669
:1016100000F04DFF0021484600F049FFADF80040C2
:101620004FF48270ADF80200ADF808703002ADF8EA
:101630000C50ADF80440ADF80A00ADF80E4007209C
:101640000F4CADF81000ADF806606946204602F078
:1016500039FE0121204602F0C9FEFF20FFF78EFF70
:1016600007B0BDE8F08301460548028822F0380241
:10167000028002880A430280012102F0B7BE000006
:10168000003001400004024070B5CF4C0025C4F882
:10169000B852902004F52E74FFF770FF0020FFF77A
:1016A0006DFF0020FFF76AFF0020FFF767FFFF20B4
:1016B000FFF764FF45EA0025FF20FFF75FFF28439F
:1016C0000121216070BD1CB50121022000F095FEB2
:1016D0000121402000F091FE4FF480400124009051
:1016E0008DF8044000208DF8060003208DF80500D9
:1016F0008DF807406946B54800F066FCB248C0F86E
:10170000B842FFF753FF0020FFF7ADFFFFF7BCFF24
:10171000AF4908800146AFA018F01EFE1CBD10B5F1
:10172000A94C0020C4F8B802052004F52E74FFF778
:1017300025FFFF20FFF722FF0121216010BD70B5BA
:10174000A14C05460020C4F8B802012004F52E740F
:10175000FFF714FF2846FFF711FF0120206070BD3E
:1017600010B5994C0020C4F8B802062004F52E7478
:10177000FFF704FF0120206010BD10B5924C00203F
:10178000C4F8B802042004F52E74FFF7F7FE012018
:10179000206010BD2DE9F0418B4E07460020154614
:1017A0000C46C6F8B8020320FFF7E8FEC4F3074072
:1017B000FFF7E4FEC4F30720FFF7E0FEE0B2FFF717
:1017C000DDFE002405E0FF20FFF7D8FE3855641C3D
:1017D000A4B2AC42F7D30120C6F8B802BDE8F0814C
:1017E0002DE91040FFF79BFFC007FBD110BD2DE98D
:1017F000F04115460C460746FFF7B2FF724E002037
:10180000C6F8B8020220FFF7B9FEC4F30740FFF79D
:10181000B5FEC4F30720FFF7B1FEE0B2FFF7AEFE5E
:10182000002404E0385DFFF7A9FE641CA4B2AC42BA
:10183000F8D30120C6F8B802BDE8F041D0E72DE9A1
:10184000F0410746C8B2C0F580740E461546A24264
:1018500000D814464FF48078224631463846FFF7C8
:10186000C6FFA542BAD0281B2744264485B2444669
:10187000A542F1D82C46EFE7B0E770B50446014623
:101880005AA018F069FD2403FFF76AFFFFF7A8FFCD
:101890004D4D0020C5F8B802202005F52E75FFF744
:1018A0006DFEC4F30740FFF769FEC4F30720FFF79E
:1018B00065FEE0B2FFF762FE01202860BDE87040DF
:1018C0008EE72DE9F05FC1F30B06DFF828810F0BDF
:1018D000C6F58054894682461546A24200D8144671
:1018E00039038B464FF480524046FFF753FF0020E8
:1018F00006E0321818F80210FF2903D1401C80B20C
:10190000A042F6D3A04223D23846FFF7B6FF00200C
:1019100007E000BF1AF800208319401C08F80320D4
:1019200080B2A042F6D359464FF480524FEA0800E5
:10193000FFF785FFA5420FD0281BA244A144002633
:1019400085B24FF480547F1CA542C9D82C46C7E706
:10195000224649465046EBE7BDE8F09F10B5FFF739
:10196000FFFEFFF73DFF184C0020C4F8B802C72067
:1019700004F52E74FFF702FE01202060BDE8104040
:101980002EE710B5104C0020C4F8B802B92004F5B9
:101990002E74FFF7F3FD01202060BDE81040032006
:1019A00002F08FBE10B5084C0020C4F8B802AB207E
:1019B00004F52E74FFF7E2FD01202060BDE8104021
:1019C000032002F07EBE000000804042000402407E
:1019D0005000002074686520666C6173682069643B
:1019E0002069732025640D0A0000000066653A2511
:1019F000780D0A00AF130020F0B5FF2340F2311636
:101A000000240FE0055D6B4008251F0602D586EA1D
:101A1000430300E05B006D1EDBB215F0FF05F4D15F
:101A2000641CE4B28C42EDD3934201D10120F0BD9D
:101A30000020F0BD2DE9F84307465CA088468826C3
:101A40000024056800F0E1F8304600F079F900F074
:101A500015F908B1FE2459E0E8B200F071F900F080
:101A60000DF930B9C5F3072000F06AF900F006F966
:101A700008B1FD244AE000F0E4F8322546F0010602
:101A800000F0C3F8304600F05BF900F0F7F838B129
:101A900000F0D7F80A206D1E02F032FE002DEFD1C3
:101AA000012000F078F98DF80000012000F073F9B2
:101AB0008DF80100012000F06EF90546012000F0CC
:101AC0006AF98DF80200012000F065F98DF8030035
:101AD000002000F060F906462A4602216846FFF71A
:101AE0008BFF38B1324602210DF10200FFF784FF6F
:101AF00010B102E0FC2400E0FB24BDF8000040BA75
:101B00003880BDF8020040BAA8F8000000F099F84B
:101B10002046BDE8F88330B50C462DED028B83B02E
:101B2000054601A96846FFF785FF00282AD1BDF8C0
:101B300004001BF0D3FB9FED1E8B53EC182B1BF006
:101B4000F3F99FED1D1B53EC112B1BF017FC1BF041
:101B5000FDF82060BDF800001BF0C0FB53EC182B13
:101B60001BF0E2F99FED161B53EC112B1BF006FC4A
:101B70009FED151B53EC112B1BF034FD1BF0E6F809
:101B80002860002003B0BDEC028B30BD10B50446C8
:101B900000F03BF8204600F0D3F800F06FF808B1F1
:101BA000002010BD00F04DF8012010BD24160000EB
:101BB00000000000E0FFEF4000000000000059407E
:101BC0000000000000E0654000000000008046408A
:101BD0001CB50121022000F010FC4FF440500124FC
:101BE00000908DF8044000208DF8060003208DF849
:101BF00005008DF8074069467F4800F0E5F97F4809
:101C0000C0F8B442C0F8B0421CBD70B57A48016853
:101C100021F040710160016841F080710160774CF2
:101C20000120C4F8B002C4F8B402042004F52C74F6
:101C300002F047FD00252560042002F042FD6560AA
:101C400070BD6D4810B5016821F0407101600168F8
:101C500041F080710160694C0020C4F8B402C4F8FE
:101C6000B002042004F52C7402F02BFD012060600A
:101C70002060BDE81040042002F023BD70B55E482E
:101C80000025016821F040710160016801605B4C32
:101C90000126C4F8B062022002F013FDC4F8B46259
:101CA000022002F00EFD4FF4FA7007E06D1CADB299
:101CB000854203D9FFF7C5FF012070BDD4F830126B
:101CC0000029F3D10020C4F8B402C4F8B06270BD9A
:101CD00070B54A4C0025C4F8B4524748016821F059
:101CE00040710160016841F080710160C4F8B05238
:101CF000022004F52C7402F0E4FC01206060022054
:101D000002F0DFFC656070BD70B53C4C0025C4F886
:101D1000B4523948016821F040710160016841F016
:101D2000807101600126C4F8B062022004F52C74B1
:101D300002F0C7FC6660022002F0C3FC656070BD63
:101D40002DE9F04106462C48016821F04071016000
:101D5000016841F080710160284C0027C4F8B4721A
:101D60003D464FF00108F009C4F8B0027006060EB7
:101D7000022002F0A6FCC4F8B482042002F0A1FC08
:101D8000C4F8B472022002F09CFC6D1CEDB2082D68
:101D9000E9D3BDE8F0812DE9F047814616480024DB
:101DA000016821F04071016001680160134E254611
:101DB00027464FF0010800BFC6F8B472022002F0B7
:101DC00080FCC6F8B4826006040ED6F8300208B172
:101DD000641CE4B2012002F074FC6D1CEDB2082D0D
:101DE000EAD3B9F1000F04D0FFF772FF2046BDE837
:101DF000F087FFF789FFF9E70004024000804042C6
:101E00000948804709480047FEE7FEE7FEE7FEE78E
:101E1000FEE7FEE7FEE7FEE7FEE7FEE704480549CA
:101E2000054A064B70470000CB0B000889010008EB
:101E300030AD012030CD012030BD012030BD01206A
:101E40002849084328490860704730B50F22C478F4
:101E500001780123FCB1244C246801F1E02104F451
:101E6000E064C4F5E064C4F30724C4F10405E2406F
:101E70004478AC408578154025432A0181F8002438
:101E8000007800F01F018B404009800000F1E02045
:101E9000C0F8003130BD01F01F00834048098000C8
:101EA00000F1E020C0F8803130BD104A11400143FC
:101EB0000D48001F016070470B4A121D0029116870
:101EC00001D0014300E08143116070474FF0E021F1
:101ED0000428086903D020F004000861704740F02E
:101EE0000400FAE70000FA050CED00E080FFFF1F98
:101EF000824910B5884206D10121084600F0AFFAA8
:101F0000002101205BE07E49884206D101210220A8
:101F100000F0A5FA0021022051E07A49884206D15A
:101F20000121042000F09BFA0021042047E07649BB
:101F3000884206D10121082000F091FA00210820F2
:101F40003DE07249884206D10121102000F087FA55
:101F50000021102033E06E49884206D10121202063
:101F600000F07DFA0021202029E06A49884206D14C
:101F70000121402000F073FA002140201FE0664953
:101F8000884206D10121802000F069FA00218020DA
:101F900015E06249884202D1012184150AE06049B6
:101FA000884202D10121441504E05E4988420AD1E9
:101FB00001210415204600F052FA00212046BDE818
:101FC000104000F04CBA10BDF0B5002301240327E7
:101FD0000D6804FA03F21540954242D1D0F800C0D2
:101FE0005E0007FA06F52CEA050CC0F800C091F86F
:101FF00004C0D0F800E00CFA06FC4CEA0E0CC0F865
:1020000000C091F804C0BCF1010F02D0BCF1020F76
:102010001FD1D0F808C02CEA050CC0F808C091F810
:1020200005C0D0F808E00CFA06FC4CEA0E0CC0F82B
:1020300008C0D0F804C02CEA020CC0F804C0426802
:1020400091F806C00CFA03FC1FFA8CFC42EA0C0261
:102050004260C268AA43C260CA79C568B2402A43D6
:10206000C2605B1C102BB3D3F0BD4FF6FF71016053
:102070000021017141718171C171704708B541F44E
:1020800080320092C261C1610099C161C169C069B9
:10209000009008BD0246002012690A4200D00120CB
:1020A0007047006980B270470246002052690A42B8
:1020B00000D001207047406980B2704701837047AB
:1020C000418370470AB10183704741837047416182
:1020D000704742694A40426170474B07DB0E9A40A5
:1020E000C90810B500EB8100016A0F249C40A14390
:1020F0000162016A1143016210BD0000000002404C
:102100000004024000080240000C0240001002409F
:102110000014024000180240001C0240002002404F
:102120000024024000280240F848016841F0010103
:102130000160F64A0021083211600268F44B1A402F
:102140000260031DF34A1A60F04BF34A84331A60AD
:10215000F04A103A1B1D1A60026822F480220260C5
:10216000EA480C300160181D01607047E749002201
:10217000891C0A7008707047024600205109012925
:102180000CD002290CD0E1497431096802F01F0219
:10219000012393400B4200D001207047DB49F4E754
:1021A000DA497031F1E718B500204FF4A0440090EF
:1021B0003120FFF7E1FF0099491C0091A14201D0B5
:1021C0000028F5D03120FFF7D7FF002800D00120EC
:1021D00018BDCE490A6822F0F80242EAC000086041
:1021E0007047CE4908607047C849002270310A70B4
:1021F0000A70012802D0042801D105200870704718
:10220000C7490860704741EA82115A0810B5C54BAA
:10221000029C03EB02421143014341EA0460BB49C3
:10222000091D086010BDBD4908667047800140EA7D
:102230000170B649843108607047B84988667047B4
:10224000800140EA0160B14940EA027088310860CB
:102250007047B24908677047B049C8647047AB4AD5
:1022600008321368084323F0EC631843106070478A
:10227000A64A08321368084323F0784318431060D5
:102280007047A24A0832116821F00301014311602E
:1022900070479E480830006800F00C0070479B4A69
:1022A0000832116821F0F001014311607047974A2C
:1022B0000832116821F4E0510143116070479349DD
:1022C00008310A6822F4604242EAC00008607047A0
:1022D00070B58E4A08321168934C11F00C0104D08D
:1022E0006610042903D0082903D004601BE00660AF
:1022F00019E08649091D0B68C3F380550B6803F08C
:102300003F0315B1B6FBF3F301E0B4FBF3F30C6844
:102310000968C4F388146343C1F30141491C4900AF
:10232000B3FBF1F1016011680F2303EA11117F4B38
:102330005C5C0168E14041601468072505EA94246B
:102340001C5D21FA04F48460126805EA52329A5C3A
:10235000D140C16070BDC0F30121032908D16B4A8F
:102360000832116821F4F8137149014019431160D2
:10237000664970310A68C0F30B0002430A60704777
:1023800067494439086070476549403908607047BB
:102390006249C1F85C0170475C4A8C321168401E8A
:1023A00021F01F0101431160704758498C310A68C0
:1023B0006FF0FF0322F4F85203EB00201043086093
:1023C0007047524A8C32116821F440110143116068
:1023D00070474E4A8C32116821F44001014311606C
:1023E00070474A4A8C32116821F440310143116030
:1023F00070475049C1F8E0017047444A3032002923
:10240000116801D0014300E08143116070473F4AE9
:1024100034320029116801D0014300E0814311608A
:1024200070473A4A38320029116801D0014300E070
:10243000814311607047354A40320029116801D04C
:10244000014300E0814311607047304A4432002963
:10245000116801D0014300E08143116070472B4AAD
:1024600010320029116801D0014300E0814311605E
:102470007047264A14320029116801D0014300E058
:10248000814311607047214A18320029116801D038
:10249000014300E08143116070471C4A203200294B
:1024A000116801D0014300E0814311607047174A71
:1024B00024320029116801D0014300E081431160FA
:1024C0007047124A50320029116801D0014300E0E0
:1024D0008143116070470D4A54320029116801D0C0
:1024E000014300E0814311607047084A58320029D7
:1024F000116801D0014300E0814311607047034A35
:1025000060320029116817D0014316E000380240FC
:10251000FFFFF6EA103000240030002000004742A0
:10252000800E47420000FFFF0024F400520000200C
:10253000FFFCFF0F00104742814311607047194AAA
:102540000029116801D0014300E081431160704708
:1025500014490C310128086803D020F008000860F5
:10256000704740F00800FAE70E4A573A0029117800
:1025700001D0014300E081431170704709481030D9
:10258000016841F08071016070470146054A0020F2
:10259000583A12680A4200D0012070470149563962
:1025A000087070476438024010B501218C03204642
:1025B000FFF77DFF2046BDE810400021FFF777BF01
:1025C00014490860704714490862704710B58A07BB
:1025D00021F003041149130F21440F22D1F80848B8
:1025E0009A409443C1F80848D1F80828984002431B
:1025F000C1F8082810BD0849C1F8DC007047084937
:10260000086070470349002020310968C90500D5DA
:10261000012070470038014000002742003001408F
:1026200000042742FE4910B5884206D10121084620
:10263000FFF73DFF002101205BE0B0F1804F09D0A2
:10264000F84988420DD101210220FFF726FF002121
:10265000022070E001210846FFF71FFF0021012042
:1026600069E0F149884206D101210420FFF715FFF6
:10267000002104205FE0ED49884206D101210820B5
:10268000FFF70BFF0021082055E0E949884206D1F9
:1026900001211020FFF701FF002110204BE0E54948
:1026A000884206D101212020FFF7F7FE00212020DB
:1026B00041E0E149884206D101210220FFF7F7FEFF
:1026C0000021022015E0DD49884202D101210C04DD
:1026D0000AE0DB49884202D101214C0404E0D949D7
:1026E00088420AD101218C042046FFF7E0FE002138
:1026F0002046BDE81040FFF7DABED349884206D134
:1027000001214020FFF7C9FE0021402013E0CF49FE
:10271000884206D101218020FFF7BFFE00218020E2
:1027200009E0CB4988420AD1841501212046FFF7F0
:10273000B4FE00212046BDE81040FFF7AEBE10BD3C
:1027400030B50288B64BBC4C98420DD0A0420BD09D
:10275000B0F1804F08D0B34DA84205D0B24DA84289
:1027600002D0B24DA84203D122F070054A882A4314
:10277000AF4DA84206D0AF4DA84203D022F4407519
:102780000A892A4302804A68C2620A8802859842FE
:1027900001D0A04201D1897A01860121818230BD18
:1027A0004FF0FF3141600021018001814180817241
:1027B0007047018582827047028822F070020A43C6
:1027C0000280704741627047C1627047406A70473B
:1027D000008D70470029018802D041F0020101E01C
:1027E00021F00201018070470029018802D041F0E8
:1027F000040101E021F004010180704700290188F3
:1028000002D041F0800101E021F080010180704799
:10281000028822F00802028002880A430280704780
:10282000028822F44072028002880A4302807047C4
:102830000029018802D041F0010101E021F00101ED
:102840000180704730B5028C22F001020284028CB4
:102850008388048B22F0020224F073050C882C4339
:102860008D8915434A882A436D4DA84202D0724D86
:10287000A8420DD122F00805CA8923F440732A43E7
:1028800022F004058A882A430D8A1D434B8A2B4374
:102890008380048389684163028430BD70B5028CF3
:1028A00022F010020284028C8488038B0D8823F4AA
:1028B000E6464FF6FF7303EA052535438E8922F07D
:1028C000200203EA061616434A8803EA021232433C
:1028D000534EB04202D0584EB04215D122F080067D
:1028E000CA8924F4406403EA0212324322F040060B
:1028F0008A8803EA021232430E8A03EA86062643D6
:102900004C8A03EA840434438480058389688163A4
:10291000028470BD70B5028C22F480720284028C35
:102920008488838B0D8823F073031D4322F4007386
:102930008E894FF6FF7202EA06261E434B8802EA92
:1029400003233343364EB04202D03B4EB04215D142
:1029500023F40066CB8924F4405402EA0323334372
:1029600023F480668B8802EA032333430E8A02EA4B
:10297000061626434C8A02EA041434438480858375
:102980008968C163038470BD70B5028C22F48052E3
:102990000284048C8288838B0D8823F4E6464FF6EC
:1029A000FF7303EA0525354324F400568C8903EAB6
:1029B000043434434E8803EA06362643184CA042BA
:1029C00002D01D4CA04205D122F480440A8A03EAB9
:1029D000821222438280858389680164068470BDE7
:1029E000002101804180818081608181C1810182DB
:1029F0004182704730B50124058C00F118038C40EA
:102A0000A543058431B308292CD0091FC1F34E001A
:102A10001844016848F6FF731940016001681AE024
:102A2000000001400004004000080040000C00408D
:102A3000001000400014004000040140004001402C
:102A4000004401400048014000180040001C0040C4
:102A50000020004006E04FF6FF7303EA0222114314
:102A6000016030BD03EB510001684FF68F731940D0
:102A700001600168F3E74163704781637047C16398
:102A8000704701647047028B22F070020A43028390
:102A90007047028B4FF6FF7322F4E04203EA0121F4
:102AA000114301837047828B22F070020A438283B4
:102AB0007047828B4FF6FF7322F4E04203EA012154
:102AC000114381837047028B22F008020A4302837C
:102AD0007047028B4FF6FF7322F4006203EA012174
:102AE000114301837047828B22F008020A438283DC
:102AF0007047828B4FF6FF7322F4006203EA0121D4
:102B0000114381837047028B22F004020A4302833F
:102B10007047028B4FF6FF7322F4806203EA0121B3
:102B2000114301837047828B22F004020A4382839F
:102B30007047828B4FF6FF7322F4806203EA012113
:102B4000114381837047028B22F080020A43028383
:102B50007047028B4FF6FF73C2F30E0203EA0121A6
:102B6000114301837047828B22F080020A438283E3
:102B70007047828B4FF6FF73C2F30E0203EA012106
:102B8000114381837047028C22F002020A430284BF
:102B90007047028C22F008020A4302847047028CBC
:102BA0004FF6FF7322F0200203EA01111143018462
:102BB0007047028C4FF6FF7322F0800203EA011186
:102BC000114301847047028C4FF6FF7322F40072A8
:102BD00003EA0121114301847047028C4FF6FF7311
:102BE00022F4006203EA0121114301847047028C40
:102BF0004FF6FF7322F4005203EA013111430184BE
:102C0000704710B50123048C8B409C430484038CD3
:102C10008A401343038410BD10B50423048C8B40F9
:102C20009C430484038C8A401343038410BD828B2D
:102C300022F440628283828B4FF6FF7303EA012104
:102C40000A4382837047828B22F00C028283828B3C
:102C50000A4382837047028B22F440620283028B14
:102C60004FF6FF7303EA01210A4302837047F0B570
:102C7000048C24F010040484078B068C4FF6FF7438
:102C800004EA011527F4734704EA0331394304EADF
:102C900002220A4326F0A001294341F010010283D9
:102CA0000184F0BD028B22F00C020283028B0A43E6
:102CB000028370472DE9F0410D460E884988AA88A5
:102CC0002B8904460EB3042E26D0082E268C4FF6F0
:102CD000FF7028D026F480562684A78B268C00EA25
:102CE000022200EA013127F473473A4300EA033035
:102CF000104326F420420A4342F48051A0832184E9
:102D0000E9882046BDE8F04191E700F062F9E988E2
:102D10002046BDE8F041C5E7FFF7A9FFE988204656
:102D2000BDE8F04197E726F480762684A78B268CB1
:102D300000EA012100EA0310104327F0F3073843AB
:102D400026F420620A4342F48071A0832184E9883A
:102D50002046BDE8F04176E7002101804180012254
:102D60008280C180018170472DE9F0410C46002628
:102D700049880746012501B90226A288012A00D107
:102D80000225208823890028384610D0FFF76FFFDE
:102D9000E1883846FFF75FFF23892A4631463846E7
:102DA00000F017F9E1883846BDE8F0417AE700F015
:102DB00010F9E1883846FFF775FF23892A46314626
:102DC0003846FFF754FFE1883846BDE8F04142E756
:102DD000406B7047806B7047C06B7047006C7047EA
:102DE00010B50A884B88CC881A438B8823431A4332
:102DF0000B891A434B8989891A430A43A0F8442056
:102E000010BD0021018041808180C180018141810C
:102E100081817047002930F8441F02D041F40041FD
:102E200001E0C1F30E01018070470029818802D0C2
:102E300041F0040101E021F0040181807047002984
:102E4000818802D041F0010101E021F0010181807F
:102E50007047002A828901D00A4300E08A438281B8
:102E600070478182704702460020128A0A4200D0D1
:102E700001207047C9430182704702460020138A2F
:102E800092890B4202EA010202D0002A00D00120FE
:102E90007047C943018270471143A0F8481070473A
:102EA000002A828901D00A4300E08A438281704768
:102EB0000029818802D041F0080101E021F00801D9
:102EC00081807047018921F00701018170470289E3
:102ED00022F070020A430281704700B50346FFF7F3
:102EE000F6FF188940F00700188100BD70B516463E
:102EF0000D46602904464FF0010231460AD000F029
:102F000068F829462046FFF7E2FF208940F00700D5
:102F1000208170BDFFF7ABFEF3E730B504894FF6B3
:102F2000FF7505EA03231343E4B20B4323430381F4
:102F300030BD10B50446FFF7F0FF208940F0770060
:102F4000208110BD10B50446FFF7E7FF208940F44B
:102F50008040208110BD828822F0700282808288A9
:102F60000A4382807047028922F0070202810289A7
:102F70000A4302817047028922F08002028102899D
:102F80000A430281704770B50589048B068C25F0D1
:102F900007050D434FF6FC410C4040F201110C4374
:102FA0004FF6FF7101EA031126F022061143314367
:102FB00005810483018470BD0029818802D041F01D
:102FC000800101E021F0800181807047A0F850105D
:102FD000704770B5048C24F001040484058B048CC4
:102FE0004FF6FF7606EA0313134325F0F3052B4350
:102FF00024F00A020A4342F001010383018470BDF8
:10300000CD4910B5884206D101211020FFF74FFAB3
:103010000021102020E0C949884202D101214C043E
:1030200029E0C749884202D101218C0423E0C54927
:10303000884202D10121CC041DE0C349884202D15B
:1030400001210C0517E0C149884209D10121202046
:10305000FFF72DFA00212020BDE81040FFF727BA26
:10306000BB49884202D101218C0704E0B94988425A
:103070000AD1012144052046FFF70FFA2046BDE89A
:1030800010400021FFF709BA10BD7FB50446008A41
:103090000D4620F44051E88808432082A08941F27F
:1030A0000C618843A9882A8911436A890243114324
:1030B000A181A08A20F44071A8890843A0826846B3
:1030C000FFF706F99C48844202D0A048844201D10F
:1030D000039800E00298A189090400EBC00101EB0C
:1030E0000010296801D5490000E08900B0FBF1F229
:1030F0006420B2FBF0F109010B096FF018056B4376
:1031000002EB8302A3891D044FF0320306D503EBC3
:10311000C202B2FBF0F000F0070005E003EB021280
:10312000B2FBF0F000F00F00084320817FBD4FF4A8
:103130001651016000218180C18001810C224281F1
:103140008181704710B5028A4C8822F470630A8826
:1031500022438C88C9880C4322431A43028210BD43
:103160000021018041808180C180704700298189D0
:1031700002D041F4005101E021F4005181817047F7
:10318000028B02F47F420283028B0A430283704760
:103190000029818902D041F4004101E0C1F30E0110
:1031A000818170470029818A02D041F4006101E0E9
:1031B00021F4006181827047C1F30801818070476A
:1031C0008088C0F308007047028A22F00F02028252
:1031D000028A0A43028270470029818902D041F0A5
:1031E000020101E021F0020181817047828922F40D
:1031F0000062828182890A4382817047028A22F0BA
:1032000020020282028A0A43028270470029018A50
:1032100002D041F4804101E021F4804101827047F5
:10322000818941F00101818170470029818A02D0A2
:1032300041F0080101E021F0080181827047028B12
:10324000D2B20283028B42EA012101837047002936
:10325000818A02D041F0200101E021F02001818229
:1032600070470029818A02D041F0100101E021F06D
:10327000100181827047828A22F004028282828A4F
:103280000A43828270470029818A02D041F00201FC
:1032900001E021F0020181827047002A828A01D078
:1032A0000A4300E08A438282704710B5C1F342139B
:1032B00001F01F040121A140012B07D0022B07D0F0
:1032C0001430002A026805D00A4304E00C30F8E705
:1032D0001030F6E78A43026010BD024600201288D3
:1032E0000A4200D001207047C9430180704730B5C1
:1032F00001F01F0201240025C1F3421304FA02F277
:10330000012B0FD0022B0FD0838A4FEA11210088A6
:10331000134204FA01F400EA040001D000B10125CF
:10332000284630BD8389F0E7038AEEE70A0A0121C7
:103330009140C943018070470010014000440040A3
:1033400000480040004C0040005000400014014084
:1033500000780040007C004010B501214C0620465A
:10336000FFF77DF82046BDE810400021FFF777B851
:10337000012101600021416081604FF48042C16001
:10338000C0E90412D2108161C0E907124162816272
:10339000C1620163416340228163C0E90F122022B0
:1033A000C0E91121C1640165416581658022C16563
:1033B000C0E918128166C16601674167D20481675E
:1033C000C0E91F125210C0E921211311C0E92331B5
:1033D000C0F89410C0F89810C0F89C10C0E92812EA
:1033E0005212C0F8A8209201C0F8AC205212C0E9D5
:1033F0002C21C0F8B810704738B500230093F84B63
:103400001C694FF6FF7504F01C0405EAC020204338
:103410004FF4F86404EA8111014341F003005A615A
:103420001861F0480099491C00911969C90702D038
:1034300000998142F6D30099814201D1002038BD24
:10344000012038BD18B500220092E54A13694FF6F5
:10345000FF7403F01C0304EAC02018434FF4F86320
:1034600003EA8111014321F0020040F001001061E4
:10347000DC480099491C00911169C90702D00099E4
:103480008142F6D30099814201D1002018BD5069D4
:1034900080B218BD2DE9F04188B00027D04E0097CA
:1034A000044605973069884620F01C0501A8FEF700
:1034B0000FFFCD490298CD4A0144914202D245F016
:1034C000080516E0CA49CB4A0144914202D245F0B0
:1034D0000C050EE0C849C94A0144914209D3C849C4
:1034E0000844C849884202D245F0040501E045F08D
:1034F000100535614FF4004200214046FFF77CFF84
:1035000000282DD0C04800F075FC2068B0B3B54D40
:1035100005980121401C05904046FFF793FF4007A6
:1035200002D40598A842F3D30598A84217D04FF4C7
:103530008052002140460597FFF75EFF00280FD01C
:1035400005980121401C05904046FFF77BFF80064F
:1035500002D40598A842F3D30598A84203D10020CD
:1035600008B0BDE8F0811F2140460597FFF76AFFCC
:10357000C10604D54FF40061216201E008E0276232
:10358000400701D5676113E04FF4804060610FE0B0
:10359000206A6169C00840EA510082B200214046B9
:1035A000FFF72AFF0028DBD06FF07F4000F022FCFD
:1035B000316896480140D4E901021043E26854F8AA
:1035C000103F1A43104362681043A2681043E26838
:1035D00010432269104362691043A2691043E269F3
:1035E0001043226A1043626A104308433060F4E9D2
:1035F0000A010843D4E90212114308432169084330
:1036000061690843A1690843E16908437060206A61
:10361000B060606AF060B1694FF641700140D4E972
:103620000B021043238D626B42EA03421043A26BEC
:103630001043E26B10430843B061D4E91001084322
:10364000F06173498A6973480240D4E91203184350
:10365000D4E914352B431843A36D1843E36D184385
:10366000236E1843636E1843A36E1843104388619A
:10367000D4E91B021043626F54F8783F1A43104399
:10368000626840EA8200A268104340F400000860CB
:10369000086840F080000860012061E75C4900286C
:1036A000886902D040F0020001E020F00200886149
:1036B000704757490028886902D040F4005001E063
:1036C00020F400508861704745490028086802D0FE
:1036D00040F0040001E020F00400086070474C480E
:1036E000816941F48011816170473D490028086873
:1036F00002D040F0080001E020F0080008607047A8
:1037000000B50120FFF7F1FFFFF7E9FF0120FFF708
:10371000DBFF0120FFF7CDFF01205DF804EBBDE7E3
:103720002F4900208969C90700D0012070472C4823
:10373000816941F001018161704729490028886948
:1037400002D040F0010001E020F0010088617047E4
:10375000234A01460020926B0A4200D001207047A4
:103760001F4A01460020926B0A4200D00120704798
:103770001B4A0029D16B01D0814300E00143D16392
:103780007047174B8A88184402640A78D1F80110F0
:1037900042EA012141647047114A0244106C030A55
:1037A0004B710871506C020ECA70020C8A70020ACA
:1037B0004A70087070470A4A00291044016C02D010
:1037C00041F0004101E021F0004101647047044AEA
:1037D00008291044016C1FD041F080411EE0000018
:1037E00000800240FFFF040000D3CEFEC0E1E400F1
:1037F00040F1E9FD40787D0100796CFC005A6202DD
:10380000001F0AFA80F0FA02FFFF0F000F8120FF6D
:1038100000900240233FDEF821F0804101647047B0
:10382000F74A1044026C22F07C520264026C0A4394
:103830000264704730B5F34B59680A689C68C2F35C
:103840000D42A568121F012D02D92468A46800E06A
:103850008C68CD685D600260C0E9014130BD38B55B
:10386000E84A00240094D2E9013117E06D1C00956C
:103870001D68AD0507D51D68ED0504D40B60012357
:103880008B60536808E01D68ED0511D41D68AD0517
:103890000ED48D686D1C8D60DB6853601D68002D33
:1038A00002DB009D052DE1D304604460846038BDD7
:1038B0004B608C68641C8C608C68012C00D10B60A0
:1038C00053681C688D68C4F30D44241F012D02D970
:1038D0000968896800E09968DD6855600460C0E99E
:1038E000011338BDF0B5C74D002429680A68002AC5
:1038F00001DA0020F0BD40F2F453984215D9B0FB34
:10390000F3F6B0FBF3F203FB160606B1521C012AD4
:103910000BD0C2F10107C7EBC71707EB470700EB56
:103920008700561EC0F30C0723E00A6842F040529D
:103930000A60C0F30C004860086840F0004008606E
:10394000C868286018E034B92868D0F800C04CF086
:10395000805CC0F800C04B60B44204D1086840F0FD
:10396000005008604F60086840F000400860C96877
:10397000641C9442E7D32960A3484169490703D5F1
:1039800004214161002141600120F0BDF0B59D4E50
:1039900000244FF0004744F2F45C551E706013E0C1
:1039A00000EB44131F60C4EBC41E0EEB4E0E01EB84
:1039B0008E0EC3E901CEAC4204D203F1200EC3F84F
:1039C0000CE000E0D860641C9442E9D38E49C860E2
:1039D0008E48B060F0BD8B4A506803681146002BDA
:1039E000896808DB0368DB0505D548608868401CEA
:1039F0008860012070470368002B0CDB03689B057F
:103A000009D50368DB0506D4086000204860012062
:103A1000886050680BE00368002B0ADB03689B0595
:103A200007D40368DB0504D48B685B1C8B60C0681B
:103A3000506000207047F0B5724C00234FF48016A0
:103A4000551E206012E000BF00EB43142660C3EB5C
:103A5000C31707EB470701EB8707A760AB4203D209
:103A600004F12007E76000E0E0605B1C9342EBD3C9
:103A700065490861F0BD0246002012680A4200D084
:103A8000012070470068C0F3C3007047016841F02F
:103A90000041016070470029016802D041F0804177
:103AA00001E021F080410160704702680A43026032
:103AB000704702680A43026070470029016802D01B
:103AC00021F0006101E041F00061016070470029D0
:103AD000016802D041F4801101E021F480110160FD
:103AE00070470029016802D021F0806101E041F0B7
:103AF000806101607047436841EA02410B434360C3
:103B000070470246002012680A4200D00120704728
:103B10000246002012690A4200D001207047016865
:103B200041F00041016070470068C0F30D407047EC
:103B3000426811B122F0004101E042F000414160D1
:103B40007047406811B1C0F30C407047C0F30C00DF
:103B5000704702680021002A08DB0268120405D4BD
:103B60000268D20502D50068C0F30D4108467047CF
:103B700025490028086802D040F0800001E020F0CC
:103B80008000086070472048016841F00101016031
:103B900070471D4900200968C90700D001207047FF
:103BA000194A0146002052690A4200D0012070479C
:103BB000154948617047144A0029D16901D0014371
:103BC00000E08143D16170470F4A014600205269ED
:103BD0000A4200D0012070470B49486170470A48EB
:103BE000406900F0010070470748406900F040005C
:103BF0007047054900208969C90200D50120704736
:103C0000008002406400002000900240B0230020A9
:103C10007D4A01460020126A0A42F0D00120EEE7F8
:103C20007948006AC0F34A40E9E77748006A80B201
:103C3000E5E77548806CE2E77348C06CDFE77248DF
:103C4000006DDCE77048406DD9E76F49002048609F
:103C5000D5E76D4900208860D1E76B494862CEE71F
:103C600030B50C4605460021FFF7ECFB14B140F4DB
:103C7000804201E020F4804200212846FFF7BCFB8F
:103C8000002800D0012030BD6048C16A41F00041E9
:103C9000C162B4E75D4A002150F821309362491CAB
:103CA0000829F9D3ABE759490028C86A02D040F483
:103CB000007001E020F40070C862A0E7534A01469A
:103CC0000020D26A0A429AD0012098E74F49002882
:103CD000C86A02D040F0040001E020F00400C8628D
:103CE0008DE74A490028C86A02D040F0020001E08E
:103CF00020F00200C86282E744490028C86A02D066
:103D000040F0010001E020F00100C86277E73F4881
:103D1000D0F8001141F03001C0F800116FE73B48C6
:103D2000D0F8001121F02001C0F80011D0F80011E6
:103D300041F01001C0F8001161E734490028D1F8C2
:103D4000000102D040F0080001E020F00800C1F8B6
:103D5000000154E72D490028D1F8000102D040F0BD
:103D6000040001E020F00400C1F8000147E7274902
:103D70000028D1F8000102D020F0020001E040F05C
:103D80000200C1F800013AE72048D0F8001141F0E4
:103D90000101C0F8001132E71C4AC3000BD500290D
:103DA000D2F80C1120F0805001D0814300E0014393
:103DB000C2F80C1123E70029D2F8101101D0814379
:103DC00000E00143C2F8101119E700210F4AC300B7
:103DD00002D5D2F8043101E0D2F80831034204D010
:103DE000D2F80C21024200D10121084607E7074919
:103DF000405804E701B581B001980090002801D037
:103E0000401EFAE70CBD0000009002400080024016
:103E10008100A1F1C04148B143F2D200C1F80000D5
:103E20006FF070404860C1F8040170474FF02042C5
:103E300043F2DB001060F3E710B5D0E90112114343
:103E4000D0E903231A4311434269114382691143A4
:103E5000C2691143026A1143426A1143826A1143E3
:103E6000C26A1143026B114302689200A2F1C04280
:103E700011608168082907D101688900A1F1C0415A
:103E80000A6842F040020A60416BD1E9002342EA2D
:103E900003128B688C891B0243EA04431A430B8A82
:103EA00042EA03520B7D896942EA03620A430168D0
:103EB0008900A1F1C0414A60C16AB1F5804F08D0C4
:103EC00000686FF070418000A0F1C040C0F804119C
:103ED00010BD816BD1E9002342EA03128B680C8A82
:103EE0001B0243EA04531A430B7D896942EA0362C9
:103EF00000680A438000A0F1C040C0F8042110BD52
:103F000000210222C0E900128160C16001614161AB
:103F10008161D202C161C0E908125200C0E90A21E0
:103F20000163CB494163816370478000A0F1C040C9
:103F30000029016802D041F0010101E0C54A1140A9
:103F40000160704710B5182440234FF020414FF016
:103F5000FC32102805D041F8804F4B608A60CA605F
:103F600010BD0C664B668A66CA6610BD30B5D0E9D6
:103F700001121143D0E903231A431143426941EA74
:103F80004221826941EA4231C26941F00804D2E922
:103F9000001341EA03211389127B1B0443EA0262E6
:103FA000036A1143D3E9002542EA05221D891B7BE0
:103FB0002D0445EA03631A4303684FF02040102B99
:103FC00004D040F8804F8160C26030BD04668166D5
:103FD000C26630BD10210160002141608160C16076
:103FE000016141618161C269FC211160C269516056
:103FF000C2699160C269D160026A1160026A51604F
:10400000026A9160006AC16070474FF0204251B16E
:10401000102804D052F8800F40F004000AE0106E1F
:1040200040F004000AE08B49C91E102804D052F861
:10403000800F084010607047106E0840106670478F
:104040004FF0204251B1102804D052F8800F40F0B8
:1040500040000AE0106E40F040000AE07D493F3920
:10406000102804D052F8800F084010607047106E7E
:104070000840106670474FF02041102802D0D1F858
:1040800094007047486F70474FF02040182140F867
:10409000A01F002141604FF0FC318160C1600161CF
:1040A000704710B5D0E9001241EA4222816810231E
:1040B00043EA41310A434FF0204141F8A02FC26842
:1040C000D2E9003443EA04231489127B240444EA2D
:1040D000026213438B600269D2E9003443EA04238D
:1040E0001489127B240444EA02621343CB604069C2
:1040F000D0E9002342EA03220389007B1B0443EA40
:10410000006002430A6110BD0021016041608160CE
:10411000C268FC211160C2685160C2689160C268C7
:10412000D16002691160026951600269916002699F
:10413000D160426911604269516042699160406991
:10414000C16070474FF02041002851F8A00F02D005
:1041500040F0040002E03F4AD21E10400860704761
:1041600010B54FF480744FF0204372B1102804D082
:10417000A04205D153F8840F04E0586E08430DE0C7
:1041800053F8A40F0843186010BD102804D0A042B3
:1041900006D153F8840F05E0586E8843586610BD69
:1041A00053F8A40F8843EEE7034600204FF0204267
:1041B000102B08D0B3F5807F07D0D2F8A4200A4294
:1041C00000D001207047526EF9E7D2F88420F6E75C
:1041D0004FF02042102807D0B0F5807F08D052F869
:1041E000A40F884310607047506E88435066704734
:1041F00052F8840FF5E7034600204FF02042102BC1
:104200000CD0B3F5807F0BD0D2F8A4200A4202EA8A
:10421000D10102D0002900D001207047526EF5E78D
:10422000D2F88420F2E74FF02042102808D0B0F5F1
:10423000807F0AD052F8A40F20EAD10010607047A6
:10424000506E20EAD1005066704752F8840FF3E7B1
:10425000B4D90108FEFF0F00C14910B5884202D150
:104260000121841424E0BF49884202D101210414B1
:1042700004E0BD4988420AD10121C4132046FEF75B
:104280000CF92046BDE810400021FEF706B9B749F9
:10429000884202D1012144140AE0B549884202D182
:1042A00001210C0504E0B34988420AD101214C05E3
:1042B0002046FEF7FCF82046BDE810400021FEF73E
:1042C000F6B810BD30B502884C8802F441530A8814
:1042D000CD8822438C882C4322430C8922434C896D
:1042E00022438C892243CC8922431A430280828B49
:1042F00022F400628283098A018230BDF0B5022275
:104300000023858B01244FF24006354085830284CB
:10431000858B8E68022E42D08A8802B10224964A8A
:1043200013681B0203D5136823F400031360924A39
:104330007C3213681268C3F388168F4FC2F302737E
:104340003F1F3A683F6802F03F027F0201D58B4F62
:1043500000E08B4FB7FBF2F27243B2FBF3F2CB8873
:10436000B3F5007F2BD06301B2FBF3F202EB8202C4
:104370008B685200B2FBF3F2521D92B20A23B2FBD9
:10438000F3F202F00103D21A4FF6FF74C2F34F02A8
:1043900004EA0323941EFE2C01D302220023CC88BE
:1043A0001A43144304840A884B881A438B888989EA
:1043B0000B431A432A4342F400618183F0BD120A81
:1043C000D4E70021018041808180C1800181418149
:1043D0008181C181072101827047002101804180D4
:1043E0008180C1800222826081817047002901881A
:1043F00002D041F0400101E021F04001018070470E
:104400000029818B02D041F4806101E021F48061B8
:1044100081837047028822F40062028002880A4386
:1044200002807047B1F5804F018803D021F48041AC
:104430000180704741F48041FAE7A1F57E4201888E
:10444000FF3A02D041F4807101E021F480710180D3
:1044500070470029818802D041F0040101E021F079
:104460000401818070470029818802D041F0100149
:1044700001E021F010018180704730B5838B00226C
:104480004FF240042340838302230384848B0B88F0
:104490004FF48075B3F5007F00D003B92A464B88EE
:1044A0008D8889892B4311430B43234343F40061D7
:1044B000818330BD808970478181704700290188E0
:1044C00002D041F4005101E021F400510180704715
:1044D000018841F4805101807047012901D0008B8F
:1044E0007047808A7047008A7047002A828801D00E
:1044F0000A4300E08A4382807047090901238B4008
:10450000002A828899B201D00A4300E08A4382805F
:1045100070470246002012890A4200D001207047ED
:10452000C9430181704710B501F00F040122034611
:1045300002FA04F4002009098A4091B29A88A4B2D0
:104540000A401989214202D0002A00D0012010BD62
:1045500001F00F0201219140C94301817047000021
:104560000030014000380040003C00400034014071
:1045700000500140005401400838024000127A0007
:104580000024F400354900200860091D0860091D59
:104590000860091D086031493148143108607047CE
:1045A00030B52E498379026853B30B6893430B608F
:1045B0000A1D13680468A343136002790A44136850
:1045C000046823431360254A083213680468A34330
:1045D0001360131D1C680568AC431C604479102CE3
:1045E00005D021440A68006802430A6030BD1168A2
:1045F000046821431160196800680143196030BDE7
:104600000079084401689143016030BD00210160D8
:1046100001710C22427181717047104910310A6892
:1046200002430A60704701460C4A002014321268A7
:104630000A4200D0012070470849143108607047D1
:104640000146064A0020143212680A4200D00120B6
:10465000704702491431086070470000003C014077
:10466000FFFF7F000EF034BF0EF065BF10F018BEE4
:10467000314810B50078012807D10EF0F6FE0EF093
:104680009FFFBDE810400EF0FABE10BD10B5044605
:104690006FF00400FDF71AFC2849E00841F2883267
:1046A000087010FB02F2052048804FF0E0200169FD
:1046B00041F0020101614261016941F001010161C2
:1046C00010BD2DE9F0414FF0E026002477691B4929
:1046D000097800FB01F50EF0FBFEB069B16981427B
:1046E000FCD002D2A0EB010002E0A7EB01021044D3
:1046F00004440846AC42F1D3BDE8F0410EF01BBFC4
:1047000070B504460C48007878B10D48007860B95F
:104710000A4D6888844203D3B4FBF0F010F0C0FD6A
:104720006888B4FBF0F100FB11444FF47A706043E9
:10473000BDE87040C5E70000AF0100207000002018
:10474000AA0100207047704745490A885206FCD5E7
:10475000C2B28A807047F0B50646012187B008468C
:10476000FDF74BFE01211020FDF76FFE3D4F0722A4
:1047700009213846FDF7B1FC07220A213846FDF72A
:10478000ACFC4FF4C060049002208DF814008DF84A
:10479000150000248DF8164001258DF8175004A946
:1047A0003846FDF711FCADF80440ADF80640ADF811
:1047B0000840ADF80C400C20294CADF80A000096DA
:1047C00069462046FEF761FC01212046FEF7CEFC3B
:1047D00040212046FEF788FD012240F22551204667
:1047E000FEF763FD25208DF8180003208DF81900D1
:1047F0008DF81A008DF81B5006A8FDF726FB07B0B0
:10480000F0BD70B50EF031FE154C40F2255120463A
:10481000FEF76DFDE0B12046FEF7D2FCC2B21248B1
:1048200001880B0414D44C044FF0000304D50A2A69
:104830000DD141F4004111E00D2A0DD0C1F30D045A
:104840000A4D491C89B22A550180C72900D9038025
:10485000BDE870400EF013BE41F480410180F7E7DF
:10486000001001400000024074000020BC23002022
:1048700010B50EF0FAFD0A20FFF742FF8020FFF787
:10488000DFFE28B119490120087019A015F064FD58
:104890008020FFF7DEFEBDE810400EF0F0BD3EB513
:1048A000FCF758FA01218803FDF7CFFD0721052009
:1048B000FDF78CFEC020009000208DF80400102031
:1048C0008DF8050001248DF806406846FFF768FE64
:1048D00017208DF8080002208DF809008DF80A4095
:1048E0008DF80B4002A8FDF7B0FA3EBD7C00002019
:1048F000BDF8C8EBD6D0B6CF0000000010B5C82177
:10490000BC4816F017F8BC490020088010BD2DE9FE
:10491000F0418046012188B00846FDF76EFD012177
:104920004804FDF788FDB54F072203213846FDF7FF
:10493000D4FB02258DF8145008208DF81550002462
:1049400004908DF8164001268DF8176004A93846AA
:10495000FDF73AFBADF80440ADF80640ADF808406D
:10496000ADF80C400420A64CADF80A00CDF800804C
:1049700069462046FEF789FB01212046FEF7F6FB3B
:10498000012240F225512046FEF78FFC26208DF8AB
:10499000180003208DF819008DF81A508DF81B604F
:1049A00006A8FDF752FAFFF7A9FF08B0BDE8F081AD
:1049B00070B50EF05AFD924C40F225512046FEF79C
:1049C00096FCE8B12046FEF7FBFBC0B200268A4CFD
:1049D000242800D12680874922888854521C95B209
:1049E00025800A78242A07D10A794D2A04D14979E9
:1049F000432901D10A2807D0C82D01D3C82020801F
:104A0000BDE870400EF03BBD7A485021883815F063
:104A100091FF78492A46A1F1880015F014FF7549E5
:104A20000120883981F850002680C821714815F08E
:104A300081FFE5E710B501466E4815F038FE002805
:104A400000D0012010BD70B56A4D0024883D284675
:104A500085F8504085F8514085F87840502152350E
:104A600015F068FF2C606C602C81AC72C5F80B40AF
:104A7000C5F80F40A5F813406C75EC82AC61EC6191
:104A80002C62AC8470BD2DE9FE4F5A480026883850
:104A900090F8501000297DD0B146804680F85090A3
:104AA00058A015F059FC53495BA0883915F054FC07
:104AB00050484FF0010A883800F152017930CDE9B1
:104AC000000110E07EB1641C54A1204615F0EFFDFA
:104AD00005000ED00A2E16D2DFE806F0150C1020C5
:104AE000252A2F34393E43484CA1883815F0DFFD84
:104AF000044671E02A1B2146019802E02A1B214648
:104B000002A815F0A0FE88F851A09DF808202C46B8
:104B10005146412A24D0562A5ED15BE035482A1BF3
:104B200021462B38EDE733482A1B21462038E8E799
:104B300030482A1B21461E38E3E72E482A1B21460F
:104B40001238DEE72B482A1B2146001FD9E72948E7
:104B50002A1B2146801ED4E72A1B21460098D0E755
:104B600088F87810009815F08BFD42F2107B90FBCE
:104B7000FBF0214DE860009815F082FD642790FB62
:104B8000F7F090FBF7F107FB1100A860009815F013
:104B900077FD00E025E090FBF7F107FB110068606E
:104BA000019815F06DFD90FBFBF00830286101982D
:104BB00015F066FD90FBF7F090FBF7F107FB110095
:104BC0006861019815F05CFD90FBF7F107FB11009F
:104BD000A86101E088F87890761CF6B2092E7FF67D
:104BE00071AFBDE8FE8F044621460DA015F0B4FB61
:104BF000FAE700000C2500208000002000000240A1
:104C0000004400402A2A2A2A2A2A2A2A2A2A2A2A28
:104C10002A2A0D0A00000000257300002C00000065
:104C20004552524F5225640D0A0000001CB5012167
:104C30000220FDF7E2FB022001218DF80410009014
:104C40008DF8050000208DF80600744C8DF80710D3
:104C500069462046FDF7B8F902212046FDF72EFAF5
:104C60001CBD2DE9F0416D4F054600240221384658
:104C7000FDF726FA6A4E7068FFF723FDE8074FF04C
:104C80000201384602D0FDF719FA01E0FDF718FAE3
:104C90007068FFF716FD641C6D08E4B2082CEDD3B4
:104CA00002213846FDF70AFA7068BDE8F041FFF7C7
:104CB00008BD10B5044602E0FFF7D3FF641C20785E
:104CC0000028F9D110BD2DE9F041804688B00121BE
:104CD0000220FDF792FB01218804FDF7ACFB4F4F4A
:104CE00007220A213846FDF7F8F907220B2138463A
:104CF000FDF7F3F902258DF814504FF440608DF85C
:104D00001550002404908DF8164001268DF8176088
:104D100004A93846FDF758F9ADF80440ADF806404F
:104D2000ADF80840ADF80C400C203E4CADF80A0040
:104D3000CDF8008069462046FEF7A7F901212046FC
:104D4000FEF714FA40212046FEF7CEFA012240F287
:104D500025512046FEF7A9FA27208DF818008DF876
:104D600019508DF81A508DF81B6006A8FDF76DF8E4
:104D700008B0BDE8F0812DE9F0410EF076FB294D39
:104D800040F2255631462846FEF7B1FA38B3284698
:104D9000FEF716FA224CC0B2228811041BD4530429
:104DA0004FF000010AD50A2814D120481E49006896
:104DB0000FF0A7F9208840F4004016E00D2812D02B
:104DC000194FC2F30D03521CF85490B22080B0F575
:104DD000806F00D3218031462846FEF7A7FABDE850
:104DE000F0410EF04CBB42F480402080F3E72DE907
:104DF000F04116460D46074600240CE04021384697
:104E0000FEF76BFA0028F9D029783846FEF7D4F976
:104E1000641CA4B26D1CB442F0D3AAE700040240A3
:104E20009C00002000480040D425002014000020F1
:104E3000A94802F0C7B9A94810B50168002010F0D0
:104E40005AFFA7480168002010F055FFA54C00202C
:104E5000216810F050FF6168BDE81040002010F09C
:104E60004ABF70B505F0D0F90146002010F04CFFA4
:104E70009A4D43F69C612860002010F045FF984E43
:104E80004FF47A613060002010F03EFF954C4FF4F3
:104E900000712060002010F037FF6060296831B198
:104EA000316821B1216811B108B1002070BDFFF750
:104EB000C2FF012070BD70B58B490968C0248471A0
:104EC000A825C571012202720B23437202230370CD
:104ED0000023437083700E0CC6700E0A0671417178
:104EE0008472C5720273BD214173FF218173C17346
:104EF000017443748474C57402754275837570BD02
:104F000030B587B0FCF7AEF910B9FFF7AAFF10B1C2
:104F1000012007B030BDFCF7A7F808B10220F8E780
:104F2000002108460EF020F96B481838FFF7C3FF40
:104F3000002403940494059410F0CAFD05466B48C0
:104F40006B490094CDE9011005AB04AA03A962489E
:104F500005F06EFA0446284610F0BEFD3CB15E48EE
:104F600005F096FA5C4805F0E3FA0020D1E703204B
:104F7000CFE710B5584804F0CEF9BDE8104007203F
:104F80000FF054BF2DE9FE43534804F061FC524C2E
:104F90000020183CA07557A015F0DEF9DFF8388125
:104FA0005EA015F0D9F9D8E90157D8F80C60002DAA
:104FB00035D00220A075E078627921798DE807006C
:104FC000A378627821785AA015F0C6F9280E60738C
:104FD000C5F307432373C5F30722E272E9B2A17256
:104FE000009061A015F0B8F9380E6074C7F307435C
:104FF0002374C7F30722E273F9B2A173009066A08D
:1050000015F0AAF9300E6075C6F307432375C6F391
:105010000722E274F1B2A17400906BA03FE0D8F8CF
:105020002000407B04283FD9FF20A075A07AD4F847
:105030000B1040EA0121C8F80410A17BD4F80F201E
:105040006DA041EA0221C8F80810A17CD4F8132011
:1050500041EA0221C8F80C1015F07EF9E078627977
:1050600021798DE80700A3786278217830A015F0C7
:1050700073F9607B0090237BE27AA17A66A015F039
:105080006BF9607C0090237CE27BA17B6EA015F025
:1050900063F9607D0090237DE27CA17C76A015F011
:1050A0005BF9BDE8FE4364E7FA20FFF729FB77E7E9
:1050B00010B510F00DFD04460A4807230021426890
:1050C000AFF23F1002F5FE720FF01FFE2046BDE862
:1050D000104010F001BD0000EC2900200801002064
:1050E0006C010020A4000020107AFF1FC92F0108C6
:1050F00039720008D5FDD4DAB2E9D5D2444843501C
:10510000B7FECEF1C6F72CC7EBC9D4B5C82E2E2EEC
:105110002E2E2E2E2E2E2E2E0D0A0000D5FDD4DA88
:10512000BBF1C8A1B5D8D6B72E2E2E0D0A000000AF
:10513000CDF8BFA8656EB5C44D4143B5D8D6B7CE3E
:10514000AA3A2E2E2E2E2E2E2E2E2E2E2E2E2E2EF7
:105150002E2E25642E25642E25642E25642E25648E
:105160002E25640D0A000000CDA8B9FD4448435027
:10517000BBF1C8A1B5BD4950B5D8D6B72E2E2E2E3D
:105180002E2E2E2E2E2E2E2E2E2E25642E25642EE5
:1051900025642E25640D0A00CDA8B9FD444843506E
:1051A000BBF1C8A1B5BDD7D3CDF8D1DAC2EB2E2E55
:1051B0002E2E2E2E2E2E2E2E2E2E25642E25642EB5
:1051C00025642E25640D0A00CDA8B9FD444843503E
:1051D000BBF1C8A1B5BDB5C4C4ACC8CFCDF8B9D872
:1051E0002E2E2E2E2E2E2E2E2E2E25642E25642E85
:1051F00025642E25640D0A0044484350B7FECEF1C5
:10520000B3ACCAB12CCAB9D3C3BEB2CCAC4950B549
:10521000D8D6B7210D0A0000BEB2CCAC4950B5D8E3
:10522000D6B72E2E2E2E2E2E2E2E2E2E2E2E2E2E6D
:105230002E2E2E2E2E2E2E2E2E2E25642E25642E34
:1052400025642E25640D0A00D7D3CDF8D1DAC2EB40
:105250002E2E2E2E2E2E2E2E2E2E2E2E2E2E2E2E6E
:105260002E2E2E2E2E2E2E2E2E2E25642E25642E04
:1052700025642E25640D0A00C4ACC8CFCDF8B9D87A
:105280002E2E2E2E2E2E2E2E2E2E2E2E2E2E2E2E3E
:105290002E2E2E2E2E2E2E2E2E2E25642E25642ED4
:1052A00025642E25640D0A0002780021435C934298
:1052B00005D1491C1A462829F8DB00207047012037
:1052C00070472DE9F0410746F7480E46056814F08F
:1052D00096FBF64C206110B9F5A015F03DF827B308
:1052E000F8A015F039F8FDA2FEA1206914F045FBE5
:1052F000284617F0F3FF41EC100BFCA1206914F0D5
:1053000011FB3246FAA1206914F037FB206914F032
:105310003AF96061206913F0B4FB6269F6A11046A6
:1053200015F026F86069BDE8F081F5A015F014F8D5
:10533000F9A2ECA1206914F020FB284617F0CEFF5B
:1053400041EC100BE9A1206914F0ECFAF54AF6A142
:10535000206914F012FBF34AF6A10D3A2069D3E755
:105360002DE9FE4FD14C42F20570002720803D46CA
:10537000FF200FF0E8FEF2A014F0EEFF28226421D7
:10538000F548FCF707FAF449F4A014F0E5FFF248F9
:105390002822C8214030FCF7FDF9EF49F3A0403145
:1053A00014F0DAFFEC48FFF77FFFDFF8D4B3F8B171
:1053B000E9484030FFF778FFD0B1F2A014F0CCFFFD
:1053C000E549F6A014F0C8FFE349E8A014F0C4FFD3
:1053D00000214FF4FA73022208460FF08AFFDBF82F
:1053E00000000FF08AFBFF200FF0ADFEBDE8FE8F3E
:1053F000AE49EF48091D086000210846FFF761FF2C
:10540000824603264FF0DB0909E00928FDD2DFE8D8
:1054100000F00536A1D6F17FF006EF00F5E7002297
:10542000114610200AF042F9A049E0602288091DC7
:105430000AF0EBF958B1E0680AF084F92EB10720C0
:10544000761E16F0FF06E0D019E00620F8E7E068C7
:10545000964A0A21921CC1610123911D0AF082F92A
:1054600061885E23CDE9009169222F21D1A014F03B
:1054700073FFDDB1B8490120FFF723FF824602A97F
:10548000E0680AF05AFCA0B10C30F8D1E0680AF0EC
:1054900079FDE0680AF056F903265E2369222F2180
:1054A000CFA0CDF8009014F057FFB8E700210846D0
:1054B000E2E7D2A014F050FF10F00AFB0090A648DB
:1054C0004FF4FA684146803015F056FA02980668A3
:1054D00010E07289C7F5FA60824200D902469E4800
:1054E00071688030384415F0AEF97089074447453B
:1054F00002D83668002EECD1009810F0EDFA9649EB
:105500007DA0803114F028FF002702980CF04EF89F
:10551000BEA014F021FF9048C0A1803015F0C7F85C
:10552000C0B98D48803013F0E2FE06000AD070A1A9
:1055300014F0CBF85FEA000806D0D8F80C00082871
:105540001CD03CE0BCA000E0C1A014F005FF304638
:1055500013F097FAC1A014F0FFFE504615F009F9B8
:1055600002460020009001235146E0680AF090FCBA
:10557000002884D0BDA014F0EFFE80E7BEA0D8F8CC
:10558000141014F0E9FED8F814000528C0D2DFE8A2
:1055900000F0033234375300BDA1304614F095F8C3
:1055A0000646C0681028B3D1BBA0316914F0D4FE00
:1055B000BFA1C048326914F0DBFE012D4CD0BEA063
:1055C00014F0CAFE10F084FA054628226421B94876
:1055D000FCF777F9284610F07FFABEA014F0BCFE65
:1055E000282264215C48FCF7D5F85B49BCA011E097
:1055F0004EE024E030E0BEA01FE035B1012D11D017
:10560000BFA014F0A9FE012539E7C0A014F0A4FE44
:105610005149C3A014F0A0FE4F490120FFF751FEED
:105620008246F0E7C2A014F097FE00210846FFF77B
:1056300048FE8246002522E7C0A014F08DFEC3A0DC
:1056400014F08AFEE0680AF09DFCE0680AF07AF83F
:10565000FF200FF078FDF2E7C0A014F07DFE10F0FF
:1056600037FA05462822C8219248FCF72AF928462D
:1056700010F032FABFA014F06FFE37482822C8217C
:105680004030FCF787F83449BDA0403114F064FE87
:105690005D4628680FF031FABDA014F05DFEE068A9
:1056A0000AF070FCE06879E1107AFF1FAC0000207E
:1056B00067657420726F6F74206661696C65640A37
:1056C000000000007175657279207062756620694E
:1056D00073207573696E670A00000000717565724A
:1056E000790000006D6574686F6400006E6F0000E3
:1056F000636F64650000000025730D0A0000000060
:10570000726567697374657220706275662069736B
:10571000207573696E670A007265676973746572D4
:1057200000000000EE2400206C6F6E6769747564E1
:10573000650000006C6174697475646500000000A8
:105740006E6F7720696E2074637020636C69656E7C
:1057500074207461736B0A00202A002075736572CF
:105760006E616D652025730D0A0000007061737312
:10577000776F72642069732025730D0A00000000A2
:105780001000002074686520666C6173682069737E
:10579000206E6F7420656D7074790A007573657280
:1057A0006E616D652069732025730D0A000000008D
:1057B0002F695EDBC1ACBDD3C9CFB7FECEF1C6F752
:1057C00025642E25642E25642E25642CB1BEBBFADB
:1057D000B6CBBFDABAC5CEAA3A25640D0A000000DE
:1057E000B7FECEF1C6F725642E25642E25642E253E
:1057F00064B6CFBFAAC1ACBDD30D0A006E6F7720CF
:10580000524543565F535445500A00006E6F77204F
:1058100050415253455F535445500A0068692C74F7
:10582000686973206973204D65737361676553659B
:1058300072766572000000006765742074686520E8
:1058400061636B206661696C6564200A000000007A
:105850006E6F20726573756C740A00006E6F77202E
:1058600053454E445F535445500A0000B7A2CBCD78
:10587000CAA7B0DC0D0A00007468652061636B2064
:10588000726573756C74206973202564200A0000AA
:1058900076616C75650000007468652070617373D3
:1058A00020636F6465206973202573200A0000005F
:1058B000257300007D1300206E6F77205245474905
:1058C000535445525F464C4153485F535445500A28
:1058D00000000000666C61736831206F6B0A000085
:1058E000706167655F627566313A0D25730A000065
:1058F000D7A2B2E1B2CECAFDB4EDCEF30A000000E9
:10590000D5FDD4DAC9F3BACB0D0A0000C9E8B1B8A5
:10591000D2D1BEADD7A2B2E1B9FDC1CB0D0A000014
:105920007265676973745F6275663A0D25730A0064
:10593000CEB4D7A2B2E10D0A00000000C9E8B1B8A8
:10594000D2D1BEADBCA4BBEE0D0A0000B9D2C6F0E8
:10595000544350C8CECEF10D0A0000006E6F772080
:1059600051554552595F46414C53485F5354455039
:105970000A000000666C61736832206F6B0A0000D9
:10598000706167655F627566323A0D25730A0000C3
:10599000CDEAB3C9D7A2B2E10D0A000009F0D2FEE8
:1059A000FF200FF0D0FB74E670B510F091F80446BC
:1059B0000C23054A002105480FF0A7F905462046AB
:1059C00010F08AF8284670BD1C370020615300088B
:1059D0002DE9F041074600203049064600EB400221
:1059E00001EBC202127D2AB1401C0A28F6DB00201E
:1059F000BDE8F081012200EB400011EBC0042275EC
:105A0000F5D0274D05E03846696814F0DDFF30B168
:105A10002D68002DF7D1204600F02BF8E7E7A868A5
:105A20002060E8686060E868C4E90206287C2074A9
:105A30002046DDE700F01DB870B505460B46D5E9F8
:105A40000110884202D14FF0FF3070BD0C1A944211
:105A500000DD1446296822460144184614F0F3FE7E
:105A6000A8682044A860204670BDD0E90110081A3B
:105A700070470A4A002100BF01EB410302EBC30358
:105A8000834206D101EB410102EBC1010020087500
:105A90007047491C0A29EFDB7047000020370020BF
:105AA000588C02082DE9F041044617460E46084678
:105AB00014F05FFE050013D0274409E031788842D6
:105AC00005D12A463146204614F072FE40B1641CCE
:105AD000207810B16119B942F0D90020BDE8F081F9
